{
  "_format": "hh3-artifact-1",
  "contractName": "FairVRF",
  "sourceName": "contracts/FairVRF.sol",
  "abi": [
    {
      "inputs": [
        {
          "internalType": "address",
          "name": "_fulfiller",
          "type": "address"
        }
      ],
      "stateMutability": "nonpayable",
      "type": "constructor"
    },
    {
      "inputs": [],
      "name": "AlreadyFulfilled",
      "type": "error"
    },
    {
      "inputs": [],
      "name": "BlockHashNotAvailable",
      "type": "error"
    },
    {
      "inputs": [],
      "name": "InvalidSeedProof",
      "type": "error"
    },
    {
      "inputs": [],
      "name": "OnlyFulfiller",
      "type": "error"
    },
    {
      "inputs": [
        {
          "internalType": "address",
          "name": "owner",
          "type": "address"
        }
      ],
      "name": "OwnableInvalidOwner",
      "type": "error"
    },
    {
      "inputs": [
        {
          "internalType": "address",
          "name": "account",
          "type": "address"
        }
      ],
      "name": "OwnableUnauthorizedAccount",
      "type": "error"
    },
    {
      "inputs": [],
      "name": "ReentrancyGuardReentrantCall",
      "type": "error"
    },
    {
      "inputs": [],
      "name": "RequestNotFound",
      "type": "error"
    },
    {
      "inputs": [],
      "name": "UnauthorizedConsumer",
      "type": "error"
    },
    {
      "anonymous": false,
      "inputs": [
        {
          "indexed": true,
          "internalType": "bytes32",
          "name": "oldAnchor",
          "type": "bytes32"
        },
        {
          "indexed": true,
          "internalType": "bytes32",
          "name": "newAnchor",
          "type": "bytes32"
        }
      ],
      "name": "AnchorUpdated",
      "type": "event"
    },
    {
      "anonymous": false,
      "inputs": [
        {
          "indexed": true,
          "internalType": "address",
          "name": "consumer",
          "type": "address"
        },
        {
          "indexed": false,
          "internalType": "bool",
          "name": "authorized",
          "type": "bool"
        }
      ],
      "name": "ConsumerAuthorized",
      "type": "event"
    },
    {
      "anonymous": false,
      "inputs": [
        {
          "indexed": false,
          "internalType": "bool",
          "name": "enabled",
          "type": "bool"
        }
      ],
      "name": "ConsumerWhitelistUpdated",
      "type": "event"
    },
    {
      "anonymous": false,
      "inputs": [
        {
          "indexed": true,
          "internalType": "address",
          "name": "previousOwner",
          "type": "address"
        },
        {
          "indexed": true,
          "internalType": "address",
          "name": "newOwner",
          "type": "address"
        }
      ],
      "name": "OwnershipTransferred",
      "type": "event"
    },
    {
      "anonymous": false,
      "inputs": [
        {
          "indexed": true,
          "internalType": "uint256",
          "name": "requestId",
          "type": "uint256"
        },
        {
          "indexed": false,
          "internalType": "uint256",
          "name": "outputSeed",
          "type": "uint256"
        },
        {
          "indexed": false,
          "internalType": "uint96",
          "name": "payment",
          "type": "uint96"
        },
        {
          "indexed": false,
          "internalType": "bool",
          "name": "success",
          "type": "bool"
        }
      ],
      "name": "RandomWordsFulfilled",
      "type": "event"
    },
    {
      "anonymous": false,
      "inputs": [
        {
          "indexed": true,
          "internalType": "bytes32",
          "name": "keyHash",
          "type": "bytes32"
        },
        {
          "indexed": false,
          "internalType": "uint256",
          "name": "requestId",
          "type": "uint256"
        },
        {
          "indexed": false,
          "internalType": "uint256",
          "name": "preSeed",
          "type": "uint256"
        },
        {
          "indexed": true,
          "internalType": "uint64",
          "name": "subId",
          "type": "uint64"
        },
        {
          "indexed": false,
          "internalType": "uint16",
          "name": "minimumRequestConfirmations",
          "type": "uint16"
        },
        {
          "indexed": false,
          "internalType": "uint32",
          "name": "callbackGasLimit",
          "type": "uint32"
        },
        {
          "indexed": false,
          "internalType": "uint32",
          "name": "numWords",
          "type": "uint32"
        },
        {
          "indexed": true,
          "internalType": "address",
          "name": "sender",
          "type": "address"
        }
      ],
      "name": "RandomWordsRequested",
      "type": "event"
    },
    {
      "inputs": [
        {
          "internalType": "address",
          "name": "",
          "type": "address"
        }
      ],
      "name": "authorizedConsumers",
      "outputs": [
        {
          "internalType": "bool",
          "name": "",
          "type": "bool"
        }
      ],
      "stateMutability": "view",
      "type": "function"
    },
    {
      "inputs": [
        {
          "internalType": "address[]",
          "name": "_consumers",
          "type": "address[]"
        },
        {
          "internalType": "bool[]",
          "name": "_authorized",
          "type": "bool[]"
        }
      ],
      "name": "batchSetConsumerAuthorization",
      "outputs": [],
      "stateMutability": "nonpayable",
      "type": "function"
    },
    {
      "inputs": [],
      "name": "consumerWhitelistEnabled",
      "outputs": [
        {
          "internalType": "bool",
          "name": "",
          "type": "bool"
        }
      ],
      "stateMutability": "view",
      "type": "function"
    },
    {
      "inputs": [],
      "name": "currentAnchor",
      "outputs": [
        {
          "internalType": "bytes32",
          "name": "",
          "type": "bytes32"
        }
      ],
      "stateMutability": "view",
      "type": "function"
    },
    {
      "inputs": [
        {
          "internalType": "uint256",
          "name": "requestId",
          "type": "uint256"
        },
        {
          "internalType": "bytes32",
          "name": "nextServerSeed",
          "type": "bytes32"
        }
      ],
      "name": "fulfillRandomness",
      "outputs": [],
      "stateMutability": "nonpayable",
      "type": "function"
    },
    {
      "inputs": [],
      "name": "fulfiller",
      "outputs": [
        {
          "internalType": "address",
          "name": "",
          "type": "address"
        }
      ],
      "stateMutability": "view",
      "type": "function"
    },
    {
      "inputs": [],
      "name": "owner",
      "outputs": [
        {
          "internalType": "address",
          "name": "",
          "type": "address"
        }
      ],
      "stateMutability": "view",
      "type": "function"
    },
    {
      "inputs": [],
      "name": "renounceOwnership",
      "outputs": [],
      "stateMutability": "nonpayable",
      "type": "function"
    },
    {
      "inputs": [
        {
          "internalType": "bytes32",
          "name": "keyHash",
          "type": "bytes32"
        },
        {
          "internalType": "uint64",
          "name": "subId",
          "type": "uint64"
        },
        {
          "internalType": "uint16",
          "name": "minimumRequestConfirmations",
          "type": "uint16"
        },
        {
          "internalType": "uint32",
          "name": "callbackGasLimit",
          "type": "uint32"
        },
        {
          "internalType": "uint32",
          "name": "numWords",
          "type": "uint32"
        }
      ],
      "name": "requestRandomWords",
      "outputs": [
        {
          "internalType": "uint256",
          "name": "requestId",
          "type": "uint256"
        }
      ],
      "stateMutability": "nonpayable",
      "type": "function"
    },
    {
      "inputs": [
        {
          "internalType": "address",
          "name": "provider",
          "type": "address"
        },
        {
          "internalType": "bytes32",
          "name": "userRandomNumber",
          "type": "bytes32"
        }
      ],
      "name": "requestWithCallback",
      "outputs": [
        {
          "internalType": "uint64",
          "name": "sequenceNumber",
          "type": "uint64"
        }
      ],
      "stateMutability": "payable",
      "type": "function"
    },
    {
      "inputs": [],
      "name": "s_nextRequestId",
      "outputs": [
        {
          "internalType": "uint256",
          "name": "",
          "type": "uint256"
        }
      ],
      "stateMutability": "view",
      "type": "function"
    },
    {
      "inputs": [
        {
          "internalType": "uint256",
          "name": "",
          "type": "uint256"
        }
      ],
      "name": "s_requests",
      "outputs": [
        {
          "internalType": "address",
          "name": "sender",
          "type": "address"
        },
        {
          "internalType": "uint64",
          "name": "blockNumber",
          "type": "uint64"
        },
        {
          "internalType": "uint32",
          "name": "callbackGasLimit",
          "type": "uint32"
        },
        {
          "internalType": "uint32",
          "name": "numWords",
          "type": "uint32"
        },
        {
          "internalType": "bool",
          "name": "fulfilled",
          "type": "bool"
        },
        {
          "internalType": "bytes32",
          "name": "userSeed",
          "type": "bytes32"
        },
        {
          "internalType": "enum FairVRF.RequestType",
          "name": "reqType",
          "type": "uint8"
        }
      ],
      "stateMutability": "view",
      "type": "function"
    },
    {
      "inputs": [
        {
          "internalType": "bytes32",
          "name": "_newAnchor",
          "type": "bytes32"
        }
      ],
      "name": "setAnchor",
      "outputs": [],
      "stateMutability": "nonpayable",
      "type": "function"
    },
    {
      "inputs": [
        {
          "internalType": "address",
          "name": "_consumer",
          "type": "address"
        },
        {
          "internalType": "bool",
          "name": "_authorized",
          "type": "bool"
        }
      ],
      "name": "setConsumerAuthorization",
      "outputs": [],
      "stateMutability": "nonpayable",
      "type": "function"
    },
    {
      "inputs": [
        {
          "internalType": "bool",
          "name": "_enabled",
          "type": "bool"
        }
      ],
      "name": "setConsumerWhitelistEnabled",
      "outputs": [],
      "stateMutability": "nonpayable",
      "type": "function"
    },
    {
      "inputs": [
        {
          "internalType": "address",
          "name": "_newFulfiller",
          "type": "address"
        }
      ],
      "name": "setFulfiller",
      "outputs": [],
      "stateMutability": "nonpayable",
      "type": "function"
    },
    {
      "inputs": [
        {
          "internalType": "address",
          "name": "newOwner",
          "type": "address"
        }
      ],
      "name": "transferOwnership",
      "outputs": [],
      "stateMutability": "nonpayable",
      "type": "function"
    },
    {
      "inputs": [
        {
          "internalType": "uint256",
          "name": "requestId",
          "type": "uint256"
        },
        {
          "internalType": "bytes32",
          "name": "serverSeedRevealed",
          "type": "bytes32"
        }
      ],
      "name": "verifyRandomness",
      "outputs": [
        {
          "internalType": "bool",
          "name": "isValid",
          "type": "bool"
        },
        {
          "internalType": "uint256[]",
          "name": "randomWords",
          "type": "uint256[]"
        }
      ],
      "stateMutability": "view",
      "type": "function"
    }
  ],
  "bytecode": "0x60806040526001600255348015610014575f5ffd5b5060405161164f38038061164f833981016040819052610033916100da565b338061005857604051631e4fbdf760e01b81525f600482015260240160405180910390fd5b6100618161008b565b5060018055600480546001600160a01b0319166001600160a01b0392909216919091179055610107565b5f80546001600160a01b038381166001600160a01b0319831681178455604051919092169283917f8be0079c531659141344cd1fd0a4f28419497f9722a3daafe3b4186f6b6457e09190a35050565b5f602082840312156100ea575f5ffd5b81516001600160a01b0381168114610100575f5ffd5b9392505050565b61153b806101145f395ff3fe608060405260043610610105575f3560e01c80638da5cb5b11610092578063da7a20dd11610062578063da7a20dd14610346578063dc2e450c14610365578063f2fde38b14610384578063f4b86023146103a3578063f5da14c6146103c2575f5ffd5b80638da5cb5b14610253578063a168fa8914610283578063c98ece9014610312578063cd809b1114610331575f5ffd5b80635d3b1d30116100d85780635d3b1d30146101bd578063662fb1be146101ea5780636ef778ee146101ff578063715018a614610220578063804b9a5a14610234575f5ffd5b8063070558401461010957806308d72b2c1461014c57806319cb825f146101655780631edc716a14610190575b5f5ffd5b348015610114575f5ffd5b506101376101233660046111a7565b60056020525f908152604090205460ff1681565b60405190151581526020015b60405180910390f35b348015610157575f5ffd5b506006546101379060ff1681565b6101786101733660046111c7565b6103e1565b6040516001600160401b039091168152602001610143565b34801561019b575f5ffd5b506101af6101aa3660046111ef565b6105e0565b604051610143929190611249565b3480156101c8575f5ffd5b506101dc6101d736600461127e565b6107d0565b604051908152602001610143565b3480156101f5575f5ffd5b506101dc60025481565b34801561020a575f5ffd5b5061021e6102193660046112fc565b610a25565b005b34801561022b575f5ffd5b5061021e610a8b565b34801561023f575f5ffd5b5061021e61024e36600461132d565b610a9e565b34801561025e575f5ffd5b505f546001600160a01b03165b6040516001600160a01b039091168152602001610143565b34801561028e575f5ffd5b506102ff61029d366004611346565b60076020525f908152604090208054600182015460028301546003909301546001600160a01b038316936001600160401b03600160a01b8504169363ffffffff600160e01b9091048116939081169260ff640100000000909204821692911687565b6040516101439796959493929190611371565b34801561031d575f5ffd5b5061021e61032c3660046111a7565b610aed565b34801561033c575f5ffd5b506101dc60035481565b348015610351575f5ffd5b5061021e610360366004611421565b610b17565b348015610370575f5ffd5b5061021e61037f3660046111ef565b610c87565b34801561038f575f5ffd5b5061021e61039e3660046111a7565b61106a565b3480156103ae575f5ffd5b5060045461026b906001600160a01b031681565b3480156103cd575f5ffd5b5061021e6103dc366004611346565b6110a7565b5f6103ea6110e7565b60065460ff16801561040b5750335f9081526005602052604090205460ff16155b1561042957604051637761e0dd60e01b815260040160405180910390fd5b600280545f91826104398361148b565b909155506040805160208082018490523382840181905260608084018990528451808503909101815260808401808652815191840191909120610160850186529181526001600160401b0343811660a086019081526207a12060c08701818152600160e089018181525f6101008b018181526101208c018a8152610140909c018481528e83526007909b529b9020875181549651945163ffffffff908116600160e01b026001600160e01b0396909916600160a01b026001600160e01b03199098166001600160a01b03909216919091179690961793909316959095178255935181850180549a5115156401000000000264ffffffffff19909b16919094161798909817909155945160028701559251600386018054979850929694959194919390929160ff19169083818111156105735761057361135d565b0217905550506040805185815260208101859052600181830181905263ffffffff85166060830152608082015290513392505f9182917f63373d1c4696214b898952999c9aaec57dac1ee2723cec59bea6888f489a97729181900360a00190a45050600180559392505050565b5f828152600760209081526040808320815160e08101835281546001600160a01b03811682526001600160401b03600160a01b8204169482019490945263ffffffff600160e01b90940484169281019290925260018082015493841660608481019190915260ff640100000000909504851615156080850152600283015460a0850152600383015490948694939260c0850192909116908111156106865761068661135d565b60018111156106975761069761135d565b90525080519091506001600160a01b03166106c557604080515f8082526020820190925292509250506107c9565b60208101516001600160401b031640806106f357604080515f808252602082019092529350935050506107c9565b816060015163ffffffff166001600160401b03811115610715576107156114af565b60405190808252806020026020018201604052801561073e578160200160208202803683370190505b5092505f5b826060015163ffffffff168110156107c15760a08381015160408051602081018a905290810191909152606081018490526080810189905290810182905260c001604051602081830303815290604052805190602001205f1c8482815181106107ae576107ae6114c3565b6020908102919091010152600101610743565b506001935050505b9250929050565b5f6107d96110e7565b60065460ff1680156107fa5750335f9081526005602052604090205460ff16155b1561081857604051637761e0dd60e01b815260040160405180910390fd5b60028054905f6108278361148b565b9091555060408051602081018390523391810191909152606081018890526001600160401b03871660808201529091505f9060a0016040516020818303038152906040528051906020012090506040518060e00160405280336001600160a01b03168152602001436001600160401b031681526020018563ffffffff1681526020018463ffffffff1681526020015f151581526020018281526020015f60018111156108d5576108d561135d565b90525f8381526007602090815260409182902083518154928501519385015163ffffffff908116600160e01b026001600160e01b036001600160401b03909616600160a01b026001600160e01b03199095166001600160a01b03909316929092179390931793909316929092178255606083015160018084018054608087015115156401000000000264ffffffffff19909116939094169290921792909217905560a0830151600283015560c08301516003830180549192909160ff19169083818111156109a5576109a561135d565b021790555050604080518481526020810184905261ffff88168183015263ffffffff87811660608301528616608082015290513392506001600160401b038916918a917f63373d1c4696214b898952999c9aaec57dac1ee2723cec59bea6888f489a97729181900360a00190a450610a1c60018055565b95945050505050565b610a2d611111565b6001600160a01b0382165f81815260056020908152604091829020805460ff191685151590811790915591519182527f173a32dd6a1ebf7355312db11356615b9bc7fc754332e376edb18c783f55eef8910160405180910390a25050565b610a93611111565b610a9c5f61113d565b565b610aa6611111565b6006805460ff19168215159081179091556040519081527fed9e663f186e73b4a390942104edeea499be0c420a48700eb13dc551cd7844899060200160405180910390a150565b610af5611111565b600480546001600160a01b0319166001600160a01b0392909216919091179055565b610b1f611111565b828114610b6b5760405162461bcd60e51b8152602060048201526015602482015274082e4e4c2f240d8cadccee8d040dad2e6dac2e8c6d605b1b60448201526064015b60405180910390fd5b5f5b83811015610c8057828282818110610b8757610b876114c3565b9050602002016020810190610b9c919061132d565b60055f878785818110610bb157610bb16114c3565b9050602002016020810190610bc691906111a7565b6001600160a01b0316815260208101919091526040015f20805460ff1916911515919091179055848482818110610bff57610bff6114c3565b9050602002016020810190610c1491906111a7565b6001600160a01b03167f173a32dd6a1ebf7355312db11356615b9bc7fc754332e376edb18c783f55eef8848484818110610c5057610c506114c3565b9050602002016020810190610c65919061132d565b604051901515815260200160405180910390a2600101610b6d565b5050505050565b6004546001600160a01b03163314801590610cac57505f546001600160a01b03163314155b15610cca57604051633177673960e11b815260040160405180910390fd5b610cd26110e7565b5f82815260076020526040902080546001600160a01b0316610d0757604051632589d98f60e11b815260040160405180910390fd5b6001810154640100000000900460ff1615610d3557604051634a4117f960e01b815260040160405180910390fd5b6003546040805160208101859052016040516020818303038152906040528051906020012014610d785760405163050dc04360e41b815260040160405180910390fd5b600382905560018101805464ff00000000191664010000000017905580546001600160401b03600160a01b909104164080610dc657604051631ce084cd60e01b815260040160405180910390fd5b60018201545f9063ffffffff166001600160401b03811115610dea57610dea6114af565b604051908082528060200260200182016040528015610e13578160200160208202803683370190505b5090505f5b600184015463ffffffff16811015610e96576002840154604080516020810188905290810191909152606081018490526080810187905260a0810182905260c001604051602081830303815290604052805190602001205f1c828281518110610e8357610e836114c3565b6020908102919091010152600101610e18565b5060605f600385015460ff166001811115610eb357610eb361135d565b03610efc578582604051602401610ecb9291906114d7565b60408051601f198184030181529190526020810180516001600160e01b03166318b0258f60e21b1790529050610f73565b8530835f81518110610f1057610f106114c3565b60209081029190910101516040516001600160401b0390931660248401526001600160a01b039091166044830152606482015260840160408051601f198184030181529190526020810180516001600160e01b0316632418513560e01b17905290505b83546040515f916001600160a01b03811691600160e01b90910463ffffffff1690610f9f9085906114ef565b5f604051808303815f8787f1925050503d805f8114610fd9576040519150601f19603f3d011682016040523d82523d5f602084013e610fde565b606091505b50509050867f7dffc5ae5ee4e2e4df1651cf6ad329a73cebdb728f37ea0187b9b17e036756e4845f81518110611016576110166114c3565b60200260200101515f84604051611050939291909283526bffffffffffffffffffffffff9190911660208301521515604082015260600190565b60405180910390a2505050505061106660018055565b5050565b611072611111565b6001600160a01b03811661109b57604051631e4fbdf760e01b81525f6004820152602401610b62565b6110a48161113d565b50565b6110af611111565b6003805490829055604051829082907fadc63d75bd86c0cbbc6b424c671a679ec44af11b1201f28250645b75b73adaf1905f90a35050565b60026001540361110a57604051633ee5aeb560e01b815260040160405180910390fd5b6002600155565b5f546001600160a01b03163314610a9c5760405163118cdaa760e01b8152336004820152602401610b62565b5f80546001600160a01b038381166001600160a01b0319831681178455604051919092169283917f8be0079c531659141344cd1fd0a4f28419497f9722a3daafe3b4186f6b6457e09190a35050565b80356001600160a01b03811681146111a2575f5ffd5b919050565b5f602082840312156111b7575f5ffd5b6111c08261118c565b9392505050565b5f5f604083850312156111d8575f5ffd5b6111e18361118c565b946020939093013593505050565b5f5f60408385031215611200575f5ffd5b50508035926020909101359150565b5f8151808452602084019350602083015f5b8281101561123f578151865260209586019590910190600101611221565b5093949350505050565b8215158152604060208201525f611263604083018461120f565b949350505050565b803563ffffffff811681146111a2575f5ffd5b5f5f5f5f5f60a08688031215611292575f5ffd5b8535945060208601356001600160401b03811681146112af575f5ffd5b9350604086013561ffff811681146112c5575f5ffd5b92506112d36060870161126b565b91506112e16080870161126b565b90509295509295909350565b803580151581146111a2575f5ffd5b5f5f6040838503121561130d575f5ffd5b6113168361118c565b9150611324602084016112ed565b90509250929050565b5f6020828403121561133d575f5ffd5b6111c0826112ed565b5f60208284031215611356575f5ffd5b5035919050565b634e487b7160e01b5f52602160045260245ffd5b6001600160a01b03881681526001600160401b038716602082015263ffffffff868116604083015285166060820152831515608082015260a0810183905260e08101600283106113cf57634e487b7160e01b5f52602160045260245ffd5b8260c083015298975050505050505050565b5f5f83601f8401126113f1575f5ffd5b5081356001600160401b03811115611407575f5ffd5b6020830191508360208260051b85010111156107c9575f5ffd5b5f5f5f5f60408587031215611434575f5ffd5b84356001600160401b03811115611449575f5ffd5b611455878288016113e1565b90955093505060208501356001600160401b03811115611473575f5ffd5b61147f878288016113e1565b95989497509550505050565b5f600182016114a857634e487b7160e01b5f52601160045260245ffd5b5060010190565b634e487b7160e01b5f52604160045260245ffd5b634e487b7160e01b5f52603260045260245ffd5b828152604060208201525f611263604083018461120f565b5f82518060208501845e5f92019182525091905056fea2646970667358221220535eee488b49c69308ea84c2ed57eee9a60edd4f451a58100c5704b4abb48c5364736f6c634300081c0033",
  "linkReferences": {},
  "deployedLinkReferences": {},
  "immutableReferences": {},
  "inputSourceName": "project/contracts/FairVRF.sol",
  "buildInfoId": "solc-0_8_28-7200d4770c19ccc155d9e534afce2ff70e8fbaa8"
}