{
  "_format": "hh3-artifact-1",
  "contractName": "FairVRF",
  "sourceName": "contracts/FairVRF.sol",
  "abi": [
    {
      "inputs": [
        {
          "internalType": "address",
          "name": "_fulfiller",
          "type": "address"
        }
      ],
      "stateMutability": "nonpayable",
      "type": "constructor"
    },
    {
      "inputs": [],
      "name": "AlreadyFulfilled",
      "type": "error"
    },
    {
      "inputs": [],
      "name": "BlockHashNotAvailable",
      "type": "error"
    },
    {
      "inputs": [],
      "name": "InvalidSeedProof",
      "type": "error"
    },
    {
      "inputs": [],
      "name": "OnlyFulfiller",
      "type": "error"
    },
    {
      "inputs": [
        {
          "internalType": "address",
          "name": "owner",
          "type": "address"
        }
      ],
      "name": "OwnableInvalidOwner",
      "type": "error"
    },
    {
      "inputs": [
        {
          "internalType": "address",
          "name": "account",
          "type": "address"
        }
      ],
      "name": "OwnableUnauthorizedAccount",
      "type": "error"
    },
    {
      "inputs": [],
      "name": "ReentrancyGuardReentrantCall",
      "type": "error"
    },
    {
      "inputs": [],
      "name": "RequestNotFound",
      "type": "error"
    },
    {
      "inputs": [],
      "name": "UnauthorizedConsumer",
      "type": "error"
    },
    {
      "anonymous": false,
      "inputs": [
        {
          "indexed": true,
          "internalType": "bytes32",
          "name": "oldAnchor",
          "type": "bytes32"
        },
        {
          "indexed": true,
          "internalType": "bytes32",
          "name": "newAnchor",
          "type": "bytes32"
        }
      ],
      "name": "AnchorUpdated",
      "type": "event"
    },
    {
      "anonymous": false,
      "inputs": [
        {
          "indexed": true,
          "internalType": "address",
          "name": "consumer",
          "type": "address"
        },
        {
          "indexed": false,
          "internalType": "bool",
          "name": "authorized",
          "type": "bool"
        }
      ],
      "name": "ConsumerAuthorized",
      "type": "event"
    },
    {
      "anonymous": false,
      "inputs": [
        {
          "indexed": false,
          "internalType": "bool",
          "name": "enabled",
          "type": "bool"
        }
      ],
      "name": "ConsumerWhitelistUpdated",
      "type": "event"
    },
    {
      "anonymous": false,
      "inputs": [
        {
          "indexed": true,
          "internalType": "address",
          "name": "previousOwner",
          "type": "address"
        },
        {
          "indexed": true,
          "internalType": "address",
          "name": "newOwner",
          "type": "address"
        }
      ],
      "name": "OwnershipTransferred",
      "type": "event"
    },
    {
      "anonymous": false,
      "inputs": [
        {
          "indexed": true,
          "internalType": "uint256",
          "name": "requestId",
          "type": "uint256"
        },
        {
          "indexed": false,
          "internalType": "uint256",
          "name": "outputSeed",
          "type": "uint256"
        },
        {
          "indexed": false,
          "internalType": "uint96",
          "name": "payment",
          "type": "uint96"
        },
        {
          "indexed": false,
          "internalType": "bool",
          "name": "success",
          "type": "bool"
        }
      ],
      "name": "RandomWordsFulfilled",
      "type": "event"
    },
    {
      "anonymous": false,
      "inputs": [
        {
          "indexed": true,
          "internalType": "bytes32",
          "name": "keyHash",
          "type": "bytes32"
        },
        {
          "indexed": false,
          "internalType": "uint256",
          "name": "requestId",
          "type": "uint256"
        },
        {
          "indexed": false,
          "internalType": "uint256",
          "name": "preSeed",
          "type": "uint256"
        },
        {
          "indexed": true,
          "internalType": "uint64",
          "name": "subId",
          "type": "uint64"
        },
        {
          "indexed": false,
          "internalType": "uint16",
          "name": "minimumRequestConfirmations",
          "type": "uint16"
        },
        {
          "indexed": false,
          "internalType": "uint32",
          "name": "callbackGasLimit",
          "type": "uint32"
        },
        {
          "indexed": false,
          "internalType": "uint32",
          "name": "numWords",
          "type": "uint32"
        },
        {
          "indexed": true,
          "internalType": "address",
          "name": "sender",
          "type": "address"
        }
      ],
      "name": "RandomWordsRequested",
      "type": "event"
    },
    {
      "inputs": [
        {
          "internalType": "address",
          "name": "",
          "type": "address"
        }
      ],
      "name": "authorizedConsumers",
      "outputs": [
        {
          "internalType": "bool",
          "name": "",
          "type": "bool"
        }
      ],
      "stateMutability": "view",
      "type": "function"
    },
    {
      "inputs": [
        {
          "internalType": "address[]",
          "name": "_consumers",
          "type": "address[]"
        },
        {
          "internalType": "bool[]",
          "name": "_authorized",
          "type": "bool[]"
        }
      ],
      "name": "batchSetConsumerAuthorization",
      "outputs": [],
      "stateMutability": "nonpayable",
      "type": "function"
    },
    {
      "inputs": [],
      "name": "consumerWhitelistEnabled",
      "outputs": [
        {
          "internalType": "bool",
          "name": "",
          "type": "bool"
        }
      ],
      "stateMutability": "view",
      "type": "function"
    },
    {
      "inputs": [],
      "name": "currentAnchor",
      "outputs": [
        {
          "internalType": "bytes32",
          "name": "",
          "type": "bytes32"
        }
      ],
      "stateMutability": "view",
      "type": "function"
    },
    {
      "inputs": [
        {
          "internalType": "uint256",
          "name": "requestId",
          "type": "uint256"
        },
        {
          "internalType": "bytes32",
          "name": "nextServerSeed",
          "type": "bytes32"
        }
      ],
      "name": "fulfillRandomness",
      "outputs": [],
      "stateMutability": "nonpayable",
      "type": "function"
    },
    {
      "inputs": [],
      "name": "fulfiller",
      "outputs": [
        {
          "internalType": "address",
          "name": "",
          "type": "address"
        }
      ],
      "stateMutability": "view",
      "type": "function"
    },
    {
      "inputs": [],
      "name": "owner",
      "outputs": [
        {
          "internalType": "address",
          "name": "",
          "type": "address"
        }
      ],
      "stateMutability": "view",
      "type": "function"
    },
    {
      "inputs": [],
      "name": "renounceOwnership",
      "outputs": [],
      "stateMutability": "nonpayable",
      "type": "function"
    },
    {
      "inputs": [
        {
          "internalType": "bytes32",
          "name": "keyHash",
          "type": "bytes32"
        },
        {
          "internalType": "uint64",
          "name": "subId",
          "type": "uint64"
        },
        {
          "internalType": "uint16",
          "name": "minimumRequestConfirmations",
          "type": "uint16"
        },
        {
          "internalType": "uint32",
          "name": "callbackGasLimit",
          "type": "uint32"
        },
        {
          "internalType": "uint32",
          "name": "numWords",
          "type": "uint32"
        }
      ],
      "name": "requestRandomWords",
      "outputs": [
        {
          "internalType": "uint256",
          "name": "requestId",
          "type": "uint256"
        }
      ],
      "stateMutability": "nonpayable",
      "type": "function"
    },
    {
      "inputs": [
        {
          "internalType": "address",
          "name": "provider",
          "type": "address"
        },
        {
          "internalType": "bytes32",
          "name": "userRandomNumber",
          "type": "bytes32"
        }
      ],
      "name": "requestWithCallback",
      "outputs": [
        {
          "internalType": "uint64",
          "name": "sequenceNumber",
          "type": "uint64"
        }
      ],
      "stateMutability": "payable",
      "type": "function"
    },
    {
      "inputs": [],
      "name": "s_nextRequestId",
      "outputs": [
        {
          "internalType": "uint256",
          "name": "",
          "type": "uint256"
        }
      ],
      "stateMutability": "view",
      "type": "function"
    },
    {
      "inputs": [
        {
          "internalType": "uint256",
          "name": "",
          "type": "uint256"
        }
      ],
      "name": "s_requests",
      "outputs": [
        {
          "internalType": "address",
          "name": "sender",
          "type": "address"
        },
        {
          "internalType": "uint64",
          "name": "blockNumber",
          "type": "uint64"
        },
        {
          "internalType": "uint32",
          "name": "callbackGasLimit",
          "type": "uint32"
        },
        {
          "internalType": "uint32",
          "name": "numWords",
          "type": "uint32"
        },
        {
          "internalType": "bool",
          "name": "fulfilled",
          "type": "bool"
        },
        {
          "internalType": "bytes32",
          "name": "userSeed",
          "type": "bytes32"
        },
        {
          "internalType": "enum FairVRF.RequestType",
          "name": "reqType",
          "type": "uint8"
        }
      ],
      "stateMutability": "view",
      "type": "function"
    },
    {
      "inputs": [
        {
          "internalType": "bytes32",
          "name": "_newAnchor",
          "type": "bytes32"
        }
      ],
      "name": "setAnchor",
      "outputs": [],
      "stateMutability": "nonpayable",
      "type": "function"
    },
    {
      "inputs": [
        {
          "internalType": "address",
          "name": "_consumer",
          "type": "address"
        },
        {
          "internalType": "bool",
          "name": "_authorized",
          "type": "bool"
        }
      ],
      "name": "setConsumerAuthorization",
      "outputs": [],
      "stateMutability": "nonpayable",
      "type": "function"
    },
    {
      "inputs": [
        {
          "internalType": "bool",
          "name": "_enabled",
          "type": "bool"
        }
      ],
      "name": "setConsumerWhitelistEnabled",
      "outputs": [],
      "stateMutability": "nonpayable",
      "type": "function"
    },
    {
      "inputs": [
        {
          "internalType": "address",
          "name": "_newFulfiller",
          "type": "address"
        }
      ],
      "name": "setFulfiller",
      "outputs": [],
      "stateMutability": "nonpayable",
      "type": "function"
    },
    {
      "inputs": [
        {
          "internalType": "address",
          "name": "newOwner",
          "type": "address"
        }
      ],
      "name": "transferOwnership",
      "outputs": [],
      "stateMutability": "nonpayable",
      "type": "function"
    },
    {
      "inputs": [
        {
          "internalType": "uint256",
          "name": "requestId",
          "type": "uint256"
        },
        {
          "internalType": "bytes32",
          "name": "serverSeedRevealed",
          "type": "bytes32"
        }
      ],
      "name": "verifyRandomness",
      "outputs": [
        {
          "internalType": "bool",
          "name": "isValid",
          "type": "bool"
        },
        {
          "internalType": "uint256[]",
          "name": "randomWords",
          "type": "uint256[]"
        }
      ],
      "stateMutability": "view",
      "type": "function"
    }
  ],
  "bytecode": "0x60806040526001600255348015610014575f5ffd5b506040516116b13803806116b1833981016040819052610033916100da565b338061005857604051631e4fbdf760e01b81525f600482015260240160405180910390fd5b6100618161008b565b5060018055600480546001600160a01b0319166001600160a01b0392909216919091179055610107565b5f80546001600160a01b038381166001600160a01b0319831681178455604051919092169283917f8be0079c531659141344cd1fd0a4f28419497f9722a3daafe3b4186f6b6457e09190a35050565b5f602082840312156100ea575f5ffd5b81516001600160a01b0381168114610100575f5ffd5b9392505050565b61159d806101145f395ff3fe608060405260043610610105575f3560e01c80638da5cb5b11610092578063da7a20dd11610062578063da7a20dd14610346578063dc2e450c14610365578063f2fde38b14610384578063f4b86023146103a3578063f5da14c6146103c2575f5ffd5b80638da5cb5b14610253578063a168fa8914610283578063c98ece9014610312578063cd809b1114610331575f5ffd5b80635d3b1d30116100d85780635d3b1d30146101bd578063662fb1be146101ea5780636ef778ee146101ff578063715018a614610220578063804b9a5a14610234575f5ffd5b8063070558401461010957806308d72b2c1461014c57806319cb825f146101655780631edc716a14610190575b5f5ffd5b348015610114575f5ffd5b506101376101233660046111ee565b60056020525f908152604090205460ff1681565b60405190151581526020015b60405180910390f35b348015610157575f5ffd5b506006546101379060ff1681565b61017861017336600461120e565b6103e1565b6040516001600160401b039091168152602001610143565b34801561019b575f5ffd5b506101af6101aa366004611236565b6105e2565b604051610143929190611290565b3480156101c8575f5ffd5b506101dc6101d73660046112c5565b6107d2565b604051908152602001610143565b3480156101f5575f5ffd5b506101dc60025481565b34801561020a575f5ffd5b5061021e610219366004611343565b610a27565b005b34801561022b575f5ffd5b5061021e610a8d565b34801561023f575f5ffd5b5061021e61024e366004611374565b610aa0565b34801561025e575f5ffd5b505f546001600160a01b03165b6040516001600160a01b039091168152602001610143565b34801561028e575f5ffd5b506102ff61029d36600461138d565b60076020525f908152604090208054600182015460028301546003909301546001600160a01b038316936001600160401b03600160a01b8504169363ffffffff600160e01b9091048116939081169260ff640100000000909204821692911687565b60405161014397969594939291906113b8565b34801561031d575f5ffd5b5061021e61032c3660046111ee565b610aef565b34801561033c575f5ffd5b506101dc60035481565b348015610351575f5ffd5b5061021e610360366004611468565b610b19565b348015610370575f5ffd5b5061021e61037f366004611236565b610c89565b34801561038f575f5ffd5b5061021e61039e3660046111ee565b6110b1565b3480156103ae575f5ffd5b5060045461026b906001600160a01b031681565b3480156103cd575f5ffd5b5061021e6103dc36600461138d565b6110ee565b5f6103ea61112e565b60065460ff16801561040b5750335f9081526005602052604090205460ff16155b1561042957604051637761e0dd60e01b815260040160405180910390fd5b600280545f9182610439836114e6565b909155506040805160208082018490523382840181905260608084018990528451808503909101815260808401808652815191840191909120610160850186529181526001600160401b0343811660a086019081526207a12060c08701818152600160e089018181525f6101008b018181526101208c018a8152610140909c018481528e83526007909b529b9020875181549651945163ffffffff908116600160e01b026001600160e01b0396909916600160a01b026001600160e01b03199098166001600160a01b03909216919091179690961793909316959095178255935181850180549a5115156401000000000264ffffffffff19909b16919094161798909817909155945160028701559251600386018054979850929694959194919390929160ff1916908381811115610573576105736113a4565b0217905550506040805185815260208101859052600181830181905263ffffffff85166060830152608082015290513392505f9182917f63373d1c4696214b898952999c9aaec57dac1ee2723cec59bea6888f489a97729181900360a00190a450506001805590505b92915050565b5f828152600760209081526040808320815160e08101835281546001600160a01b03811682526001600160401b03600160a01b8204169482019490945263ffffffff600160e01b90940484169281019290925260018082015493841660608481019190915260ff640100000000909504851615156080850152600283015460a0850152600383015490948694939260c085019290911690811115610688576106886113a4565b6001811115610699576106996113a4565b90525080519091506001600160a01b03166106c757604080515f8082526020820190925292509250506107cb565b60208101516001600160401b031640806106f557604080515f808252602082019092529350935050506107cb565b816060015163ffffffff166001600160401b03811115610717576107176114fe565b604051908082528060200260200182016040528015610740578160200160208202803683370190505b5092505f5b826060015163ffffffff168110156107c35760a08381015160408051602081018a905290810191909152606081018490526080810189905290810182905260c001604051602081830303815290604052805190602001205f1c8482815181106107b0576107b0611512565b6020908102919091010152600101610745565b506001935050505b9250929050565b5f6107db61112e565b60065460ff1680156107fc5750335f9081526005602052604090205460ff16155b1561081a57604051637761e0dd60e01b815260040160405180910390fd5b60028054905f610829836114e6565b9091555060408051602081018390523391810191909152606081018890526001600160401b03871660808201529091505f9060a0016040516020818303038152906040528051906020012090506040518060e00160405280336001600160a01b03168152602001436001600160401b031681526020018563ffffffff1681526020018463ffffffff1681526020015f151581526020018281526020015f60018111156108d7576108d76113a4565b90525f8381526007602090815260409182902083518154928501519385015163ffffffff908116600160e01b026001600160e01b036001600160401b03909616600160a01b026001600160e01b03199095166001600160a01b03909316929092179390931793909316929092178255606083015160018084018054608087015115156401000000000264ffffffffff19909116939094169290921792909217905560a0830151600283015560c08301516003830180549192909160ff19169083818111156109a7576109a76113a4565b021790555050604080518481526020810184905261ffff88168183015263ffffffff87811660608301528616608082015290513392506001600160401b038916918a917f63373d1c4696214b898952999c9aaec57dac1ee2723cec59bea6888f489a97729181900360a00190a450610a1e60018055565b95945050505050565b610a2f611158565b6001600160a01b0382165f81815260056020908152604091829020805460ff191685151590811790915591519182527f173a32dd6a1ebf7355312db11356615b9bc7fc754332e376edb18c783f55eef8910160405180910390a25050565b610a95611158565b610a9e5f611184565b565b610aa8611158565b6006805460ff19168215159081179091556040519081527fed9e663f186e73b4a390942104edeea499be0c420a48700eb13dc551cd7844899060200160405180910390a150565b610af7611158565b600480546001600160a01b0319166001600160a01b0392909216919091179055565b610b21611158565b828114610b6d5760405162461bcd60e51b8152602060048201526015602482015274082e4e4c2f240d8cadccee8d040dad2e6dac2e8c6d605b1b60448201526064015b60405180910390fd5b5f5b83811015610c8257828282818110610b8957610b89611512565b9050602002016020810190610b9e9190611374565b60055f878785818110610bb357610bb3611512565b9050602002016020810190610bc891906111ee565b6001600160a01b0316815260208101919091526040015f20805460ff1916911515919091179055848482818110610c0157610c01611512565b9050602002016020810190610c1691906111ee565b6001600160a01b03167f173a32dd6a1ebf7355312db11356615b9bc7fc754332e376edb18c783f55eef8848484818110610c5257610c52611512565b9050602002016020810190610c679190611374565b604051901515815260200160405180910390a2600101610b6f565b5050505050565b6004546001600160a01b03163314801590610cae57505f546001600160a01b03163314155b15610ccc57604051633177673960e11b815260040160405180910390fd5b610cd461112e565b5f82815260076020526040902080546001600160a01b0316610d0957604051632589d98f60e11b815260040160405180910390fd5b6001810154640100000000900460ff1615610d3757604051634a4117f960e01b815260040160405180910390fd5b6003546040805160208101859052016040516020818303038152906040528051906020012014610d7a5760405163050dc04360e41b815260040160405180910390fd5b600382905560018101805464ff00000000191664010000000017905580546001600160401b03600160a01b909104164080610e0d5744610dbb600143611526565b8354604080516020810194909452914091830191909152426060830152600160a01b900460c01b6001600160c01b03191660808201526088016040516020818303038152906040528051906020012090505b60018201545f9063ffffffff166001600160401b03811115610e3157610e316114fe565b604051908082528060200260200182016040528015610e5a578160200160208202803683370190505b5090505f5b600184015463ffffffff16811015610edd576002840154604080516020810188905290810191909152606081018490526080810187905260a0810182905260c001604051602081830303815290604052805190602001205f1c828281518110610eca57610eca611512565b6020908102919091010152600101610e5f565b5060605f600385015460ff166001811115610efa57610efa6113a4565b03610f43578582604051602401610f12929190611539565b60408051601f198184030181529190526020810180516001600160e01b03166318b0258f60e21b1790529050610fba565b8530835f81518110610f5757610f57611512565b60209081029190910101516040516001600160401b0390931660248401526001600160a01b039091166044830152606482015260840160408051601f198184030181529190526020810180516001600160e01b0316632418513560e01b17905290505b83546040515f916001600160a01b03811691600160e01b90910463ffffffff1690610fe6908590611551565b5f604051808303815f8787f1925050503d805f8114611020576040519150601f19603f3d011682016040523d82523d5f602084013e611025565b606091505b50509050867f7dffc5ae5ee4e2e4df1651cf6ad329a73cebdb728f37ea0187b9b17e036756e4845f8151811061105d5761105d611512565b60200260200101515f84604051611097939291909283526bffffffffffffffffffffffff9190911660208301521515604082015260600190565b60405180910390a250505050506110ad60018055565b5050565b6110b9611158565b6001600160a01b0381166110e257604051631e4fbdf760e01b81525f6004820152602401610b64565b6110eb81611184565b50565b6110f6611158565b6003805490829055604051829082907fadc63d75bd86c0cbbc6b424c671a679ec44af11b1201f28250645b75b73adaf1905f90a35050565b60026001540361115157604051633ee5aeb560e01b815260040160405180910390fd5b6002600155565b5f546001600160a01b03163314610a9e5760405163118cdaa760e01b8152336004820152602401610b64565b5f80546001600160a01b038381166001600160a01b0319831681178455604051919092169283917f8be0079c531659141344cd1fd0a4f28419497f9722a3daafe3b4186f6b6457e09190a35050565b80356001600160a01b03811681146111e9575f5ffd5b919050565b5f602082840312156111fe575f5ffd5b611207826111d3565b9392505050565b5f5f6040838503121561121f575f5ffd5b611228836111d3565b946020939093013593505050565b5f5f60408385031215611247575f5ffd5b50508035926020909101359150565b5f8151808452602084019350602083015f5b82811015611286578151865260209586019590910190600101611268565b5093949350505050565b8215158152604060208201525f6112aa6040830184611256565b949350505050565b803563ffffffff811681146111e9575f5ffd5b5f5f5f5f5f60a086880312156112d9575f5ffd5b8535945060208601356001600160401b03811681146112f6575f5ffd5b9350604086013561ffff8116811461130c575f5ffd5b925061131a606087016112b2565b9150611328608087016112b2565b90509295509295909350565b803580151581146111e9575f5ffd5b5f5f60408385031215611354575f5ffd5b61135d836111d3565b915061136b60208401611334565b90509250929050565b5f60208284031215611384575f5ffd5b61120782611334565b5f6020828403121561139d575f5ffd5b5035919050565b634e487b7160e01b5f52602160045260245ffd5b6001600160a01b03881681526001600160401b038716602082015263ffffffff868116604083015285166060820152831515608082015260a0810183905260e081016002831061141657634e487b7160e01b5f52602160045260245ffd5b8260c083015298975050505050505050565b5f5f83601f840112611438575f5ffd5b5081356001600160401b0381111561144e575f5ffd5b6020830191508360208260051b85010111156107cb575f5ffd5b5f5f5f5f6040858703121561147b575f5ffd5b84356001600160401b03811115611490575f5ffd5b61149c87828801611428565b90955093505060208501356001600160401b038111156114ba575f5ffd5b6114c687828801611428565b95989497509550505050565b634e487b7160e01b5f52601160045260245ffd5b5f600182016114f7576114f76114d2565b5060010190565b634e487b7160e01b5f52604160045260245ffd5b634e487b7160e01b5f52603260045260245ffd5b818103818111156105dc576105dc6114d2565b828152604060208201525f6112aa6040830184611256565b5f82518060208501845e5f92019182525091905056fea2646970667358221220bdde9e5df3f22ce30869b061148b26cd7e920c4d9ef17303d2acaaee3c981e3564736f6c634300081c0033",
  "linkReferences": {},
  "deployedLinkReferences": {},
  "immutableReferences": {},
  "inputSourceName": "project/contracts/FairVRF.sol",
  "buildInfoId": "solc-0_8_28-de32a580087f819ba105d203385742becdcea4d0"
}