{
  "_format": "hh3-artifact-1",
  "contractName": "PythToFairVRFAdapter",
  "sourceName": "contracts/PythToFairVRFAdapter.sol",
  "abi": [
    {
      "inputs": [
        {
          "internalType": "address",
          "name": "_fairVRFCoordinator",
          "type": "address"
        }
      ],
      "stateMutability": "nonpayable",
      "type": "constructor"
    },
    {
      "inputs": [
        {
          "internalType": "address",
          "name": "have",
          "type": "address"
        },
        {
          "internalType": "address",
          "name": "want",
          "type": "address"
        }
      ],
      "name": "OnlyCoordinatorCanFulfill",
      "type": "error"
    },
    {
      "anonymous": false,
      "inputs": [
        {
          "indexed": true,
          "internalType": "uint64",
          "name": "sequenceNumber",
          "type": "uint64"
        },
        {
          "indexed": true,
          "internalType": "address",
          "name": "consumer",
          "type": "address"
        }
      ],
      "name": "RandomnessRequested",
      "type": "event"
    },
    {
      "inputs": [],
      "name": "COORDINATOR",
      "outputs": [
        {
          "internalType": "address",
          "name": "",
          "type": "address"
        }
      ],
      "stateMutability": "view",
      "type": "function"
    },
    {
      "inputs": [
        {
          "internalType": "uint256",
          "name": "",
          "type": "uint256"
        }
      ],
      "name": "fairVRFToSequence",
      "outputs": [
        {
          "internalType": "uint64",
          "name": "",
          "type": "uint64"
        }
      ],
      "stateMutability": "view",
      "type": "function"
    },
    {
      "inputs": [
        {
          "internalType": "uint32",
          "name": "callbackGasLimit",
          "type": "uint32"
        }
      ],
      "name": "getFeeV2",
      "outputs": [
        {
          "internalType": "uint256",
          "name": "",
          "type": "uint256"
        }
      ],
      "stateMutability": "pure",
      "type": "function"
    },
    {
      "inputs": [],
      "name": "owner",
      "outputs": [
        {
          "internalType": "address",
          "name": "",
          "type": "address"
        }
      ],
      "stateMutability": "pure",
      "type": "function"
    },
    {
      "inputs": [
        {
          "internalType": "uint256",
          "name": "requestId",
          "type": "uint256"
        },
        {
          "internalType": "uint256[]",
          "name": "randomWords",
          "type": "uint256[]"
        }
      ],
      "name": "rawFulfillRandomness",
      "outputs": [],
      "stateMutability": "nonpayable",
      "type": "function"
    },
    {
      "inputs": [
        {
          "internalType": "uint32",
          "name": "callbackGasLimit",
          "type": "uint32"
        }
      ],
      "name": "requestV2",
      "outputs": [
        {
          "internalType": "uint64",
          "name": "",
          "type": "uint64"
        }
      ],
      "stateMutability": "payable",
      "type": "function"
    },
    {
      "inputs": [
        {
          "internalType": "uint64",
          "name": "",
          "type": "uint64"
        }
      ],
      "name": "sequenceToConsumer",
      "outputs": [
        {
          "internalType": "address",
          "name": "",
          "type": "address"
        }
      ],
      "stateMutability": "view",
      "type": "function"
    },
    {
      "inputs": [
        {
          "internalType": "uint64",
          "name": "",
          "type": "uint64"
        }
      ],
      "name": "sequenceToFairVRF",
      "outputs": [
        {
          "internalType": "uint256",
          "name": "",
          "type": "uint256"
        }
      ],
      "stateMutability": "view",
      "type": "function"
    },
    {
      "inputs": [
        {
          "internalType": "uint64",
          "name": "",
          "type": "uint64"
        }
      ],
      "name": "sequenceToGasLimit",
      "outputs": [
        {
          "internalType": "uint32",
          "name": "",
          "type": "uint32"
        }
      ],
      "stateMutability": "view",
      "type": "function"
    },
    {
      "inputs": [],
      "name": "withdraw",
      "outputs": [],
      "stateMutability": "nonpayable",
      "type": "function"
    },
    {
      "stateMutability": "payable",
      "type": "receive"
    }
  ],
  "bytecode": "0x60a0604052600480546001600160401b0319166001179055348015610022575f5ffd5b50604051610b2f380380610b2f83398101604081905261004191610052565b6001600160a01b031660805261007f565b5f60208284031215610062575f5ffd5b81516001600160a01b0381168114610078575f5ffd5b9392505050565b608051610a836100ac5f395f81816101f0015281816103b0015281816105ee01526106300152610a835ff3fe608060405260043610610092575f3560e01c806362c0963c1161005757806362c0963c1461022657806382ae709b146102455780638da5cb5b1461028b578063b8f4059f1461029d578063ca1642e1146102d6575f5ffd5b80630bed189f1461012f5780630d376c701461015f57806310c557f4146101935780633b2bcbf1146101df5780633ccfd60b14610212575f5ffd5b3661012b573415610129576040515f90339034908381818185875af1925050503d805f81146100dc576040519150601f19603f3d011682016040523d82523d5f602084013e6100e1565b606091505b50509050806101275760405162461bcd60e51b815260206004820152600d60248201526c1499599d5b990819985a5b1959609a1b60448201526064015b60405180910390fd5b505b005b5f5ffd5b61014261013d3660046108a0565b6102f5565b6040516001600160401b0390911681526020015b60405180910390f35b34801561016a575f5ffd5b506101426101793660046108ca565b5f602081905290815260409020546001600160401b031681565b34801561019e575f5ffd5b506101c76101ad3660046108e1565b60026020525f90815260409020546001600160a01b031681565b6040516001600160a01b039091168152602001610156565b3480156101ea575f5ffd5b506101c77f000000000000000000000000000000000000000000000000000000000000000081565b34801561021d575f5ffd5b5061012961051c565b348015610231575f5ffd5b5061012961024036600461091b565b6105e3565b348015610250575f5ffd5b5061027661025f3660046108e1565b60036020525f908152604090205463ffffffff1681565b60405163ffffffff9091168152602001610156565b348015610296575f5ffd5b505f6101c7565b3480156102a8575f5ffd5b506102c86102b73660046108e1565b60016020525f908152604090205481565b604051908152602001610156565b3480156102e1575f5ffd5b506102c86102f03660046108a0565b505f90565b600480545f9182916001600160401b03169082610311836109ec565b82546101009290920a6001600160401b0381810219909316918316021790915581165f9081526002602090815260408083208054336001600160a01b0319909116179055600391829052808320805463ffffffff191663ffffffff891690811790915590516305d3b1d360e41b815260048101849052602481018490526044810192909252606482015260016084820152919250906001600160a01b037f00000000000000000000000000000000000000000000000000000000000000001690635d3b1d309060a4016020604051808303815f875af11580156103f6573d5f5f3e3d5ffd5b505050506040513d601f19601f8201168201806040525081019061041a9190610a22565b5f81815260208181526040808320805467ffffffffffffffff19166001600160401b038816908117909155835260019091529020819055905034156104e0576040515f90339034908381818185875af1925050503d805f8114610498576040519150601f19603f3d011682016040523d82523d5f602084013e61049d565b606091505b50509050806104de5760405162461bcd60e51b815260206004820152600d60248201526c1499599d5b990819985a5b1959609a1b604482015260640161011e565b505b60405133906001600160401b038416907ff09a63f9e06f8e96ec8e1be5bdfdb17d52cf919bcfe025e59cf8e5c0bd65d35a905f90a35092915050565b33156105575760405162461bcd60e51b815260206004820152600a60248201526927b7363c9037bbb732b960b11b604482015260640161011e565b6040515f90819047908281818185825af1925050503d805f8114610596576040519150601f19603f3d011682016040523d82523d5f602084013e61059b565b606091505b50509050806105e05760405162461bcd60e51b815260206004820152601160248201527015da5d1a191c985dd85b0819985a5b1959607a1b604482015260640161011e565b50565b336001600160a01b037f0000000000000000000000000000000000000000000000000000000000000000161461065d5760405163073e64fd60e21b81523360048201526001600160a01b037f000000000000000000000000000000000000000000000000000000000000000016602482015260440161011e565b610667828261066b565b5050565b5f82815260208181526040808320546001600160401b0316808452600283528184205460039093529220546001600160a01b039091169063ffffffff16816106f55760405162461bcd60e51b815260206004820152601760248201527f496e76616c69642073657175656e6365206e756d626572000000000000000000604482015260640161011e565b6001600160a01b0382163b1561083f57816001600160a01b031663241851358263ffffffff168530885f8151811061072f5761072f610a39565b60209081029190910101516040516001600160e01b031960e087901b1681526001600160401b0390931660048401526001600160a01b03909116602483015260448201526064015f604051808303815f88803b15801561078d575f5ffd5b5087f19350505050801561079f575060015b61083f57816001600160a01b03166352a5f1f88263ffffffff168530885f815181106107cd576107cd610a39565b60209081029190910101516040516001600160e01b031960e087901b1681526001600160401b0390931660048401526001600160a01b03909116602483015260448201526064015f604051808303815f88803b15801561082b575f5ffd5b5087f19350505050801561083d575060015b505b50505f92835260208381526040808520805467ffffffffffffffff191690556001600160401b03929092168452600181528184208490556002815281842080546001600160a01b031916905560039052909120805463ffffffff1916905550565b5f602082840312156108b0575f5ffd5b813563ffffffff811681146108c3575f5ffd5b9392505050565b5f602082840312156108da575f5ffd5b5035919050565b5f602082840312156108f1575f5ffd5b81356001600160401b03811681146108c3575f5ffd5b634e487b7160e01b5f52604160045260245ffd5b5f5f6040838503121561092c575f5ffd5b8235915060208301356001600160401b03811115610948575f5ffd5b8301601f81018513610958575f5ffd5b80356001600160401b0381111561097157610971610907565b8060051b604051601f19603f83011681018181106001600160401b038211171561099d5761099d610907565b6040529182526020818401810192908101888411156109ba575f5ffd5b6020850194505b838510156109dd578435808252602095860195909350016109c1565b50809450505050509250929050565b5f6001600160401b0382166001600160401b038103610a1957634e487b7160e01b5f52601160045260245ffd5b60010192915050565b5f60208284031215610a32575f5ffd5b5051919050565b634e487b7160e01b5f52603260045260245ffdfea2646970667358221220fd56837abdf90c3b365d628477efab15f00526a4fa59c7ff76dea38b46955fd264736f6c634300081c0033",
  "linkReferences": {},
  "deployedLinkReferences": {},
  "immutableReferences": {
    "10": [
      {
        "length": 32,
        "start": 496
      },
      {
        "length": 32,
        "start": 944
      },
      {
        "length": 32,
        "start": 1518
      },
      {
        "length": 32,
        "start": 1584
      }
    ]
  },
  "inputSourceName": "project/contracts/PythToFairVRFAdapter.sol",
  "buildInfoId": "solc-0_8_28-fc49541c2a3a08e93ea1c499542c5fe83cf73d76"
}