{
  "_format": "hh3-artifact-1",
  "contractName": "PythExampleConsumer",
  "sourceName": "contracts/examples/PythExampleConsumer.sol",
  "abi": [
    {
      "inputs": [
        {
          "internalType": "address",
          "name": "_entropy",
          "type": "address"
        }
      ],
      "stateMutability": "nonpayable",
      "type": "constructor"
    },
    {
      "inputs": [
        {
          "internalType": "address",
          "name": "owner",
          "type": "address"
        }
      ],
      "name": "OwnableInvalidOwner",
      "type": "error"
    },
    {
      "inputs": [
        {
          "internalType": "address",
          "name": "account",
          "type": "address"
        }
      ],
      "name": "OwnableUnauthorizedAccount",
      "type": "error"
    },
    {
      "anonymous": false,
      "inputs": [
        {
          "indexed": true,
          "internalType": "address",
          "name": "previousOwner",
          "type": "address"
        },
        {
          "indexed": true,
          "internalType": "address",
          "name": "newOwner",
          "type": "address"
        }
      ],
      "name": "OwnershipTransferred",
      "type": "event"
    },
    {
      "anonymous": false,
      "inputs": [
        {
          "indexed": false,
          "internalType": "uint64",
          "name": "sequenceNumber",
          "type": "uint64"
        },
        {
          "indexed": false,
          "internalType": "bytes32",
          "name": "randomValue",
          "type": "bytes32"
        }
      ],
      "name": "RandomnessReceived",
      "type": "event"
    },
    {
      "anonymous": false,
      "inputs": [
        {
          "indexed": false,
          "internalType": "uint64",
          "name": "sequenceNumber",
          "type": "uint64"
        },
        {
          "indexed": false,
          "internalType": "address",
          "name": "user",
          "type": "address"
        }
      ],
      "name": "RandomnessRequested",
      "type": "event"
    },
    {
      "inputs": [],
      "name": "entropy",
      "outputs": [
        {
          "internalType": "contract IEntropyV2",
          "name": "",
          "type": "address"
        }
      ],
      "stateMutability": "view",
      "type": "function"
    },
    {
      "inputs": [
        {
          "internalType": "uint64",
          "name": "sequenceNumber",
          "type": "uint64"
        },
        {
          "internalType": "address",
          "name": "provider",
          "type": "address"
        },
        {
          "internalType": "bytes32",
          "name": "randomValue",
          "type": "bytes32"
        }
      ],
      "name": "entropyCallback",
      "outputs": [],
      "stateMutability": "nonpayable",
      "type": "function"
    },
    {
      "inputs": [],
      "name": "getEntropy",
      "outputs": [
        {
          "internalType": "address",
          "name": "",
          "type": "address"
        }
      ],
      "stateMutability": "view",
      "type": "function"
    },
    {
      "inputs": [],
      "name": "owner",
      "outputs": [
        {
          "internalType": "address",
          "name": "",
          "type": "address"
        }
      ],
      "stateMutability": "view",
      "type": "function"
    },
    {
      "inputs": [
        {
          "internalType": "uint64",
          "name": "",
          "type": "uint64"
        }
      ],
      "name": "randomResults",
      "outputs": [
        {
          "internalType": "bytes32",
          "name": "",
          "type": "bytes32"
        }
      ],
      "stateMutability": "view",
      "type": "function"
    },
    {
      "inputs": [],
      "name": "renounceOwnership",
      "outputs": [],
      "stateMutability": "nonpayable",
      "type": "function"
    },
    {
      "inputs": [
        {
          "internalType": "uint64",
          "name": "",
          "type": "uint64"
        }
      ],
      "name": "requestFulfilled",
      "outputs": [
        {
          "internalType": "bool",
          "name": "",
          "type": "bool"
        }
      ],
      "stateMutability": "view",
      "type": "function"
    },
    {
      "inputs": [],
      "name": "requestRandomness",
      "outputs": [],
      "stateMutability": "payable",
      "type": "function"
    },
    {
      "inputs": [
        {
          "internalType": "address",
          "name": "_entropy",
          "type": "address"
        }
      ],
      "name": "setEntropy",
      "outputs": [],
      "stateMutability": "nonpayable",
      "type": "function"
    },
    {
      "inputs": [
        {
          "internalType": "address",
          "name": "newOwner",
          "type": "address"
        }
      ],
      "name": "transferOwnership",
      "outputs": [],
      "stateMutability": "nonpayable",
      "type": "function"
    }
  ],
  "bytecode": "0x608060405234801561000f575f5ffd5b506040516107a13803806107a183398101604081905261002e916100d1565b338061005357604051631e4fbdf760e01b81525f600482015260240160405180910390fd5b61005c81610082565b50600180546001600160a01b0319166001600160a01b03929092169190911790556100fe565b5f80546001600160a01b038381166001600160a01b0319831681178455604051919092169283917f8be0079c531659141344cd1fd0a4f28419497f9722a3daafe3b4186f6b6457e09190a35050565b5f602082840312156100e1575f5ffd5b81516001600160a01b03811681146100f7575f5ffd5b9392505050565b6106968061010b5f395ff3fe60806040526004361061008f575f3560e01c80638da5cb5b116100575780638da5cb5b1461015f57806390088b591461017b578063b59ee46d146101b4578063f2fde38b146101d3578063f8413b07146101f2575f5ffd5b8063241851351461009357806347ce07cc146100b45780635404bbf7146100f0578063715018a61461010d5780637e71234214610121575b5f5ffd5b34801561009e575f5ffd5b506100b26100ad366004610593565b6101fa565b005b3480156100bf575f5ffd5b506001546100d3906001600160a01b031681565b6040516001600160a01b0390911681526020015b60405180910390f35b3480156100fb575f5ffd5b506001546001600160a01b03166100d3565b348015610118575f5ffd5b506100b26102bc565b34801561012c575f5ffd5b5061014f61013b3660046105ce565b60036020525f908152604090205460ff1681565b60405190151581526020016100e7565b34801561016a575f5ffd5b505f546001600160a01b03166100d3565b348015610186575f5ffd5b506101a66101953660046105ce565b60026020525f908152604090205481565b6040519081526020016100e7565b3480156101bf575f5ffd5b506100b26101ce3660046105f0565b6102cf565b3480156101de575f5ffd5b506100b26101ed3660046105f0565b6102f9565b6100b2610336565b6001546001600160a01b031633146102515760405162461bcd60e51b815260206004820152601560248201527427b7363c9032b73a3937b83c90383937bb34b232b960591b60448201526064015b60405180910390fd5b67ffffffffffffffff83165f8181526002602090815260408083208590556003825291829020805460ff19166001179055815192835282018390527feefed27b2658b248d17d516ac90d5abf5055eba3a837e187e8c5d3da1c64b15c910160405180910390a1505050565b6102c46104e8565b6102cd5f610514565b565b6102d76104e8565b600180546001600160a01b0319166001600160a01b0392909216919091179055565b6103016104e8565b6001600160a01b03811661032a57604051631e4fbdf760e01b81525f6004820152602401610248565b61033381610514565b50565b60015460405163ca1642e160e01b8152620186a060048201819052915f916001600160a01b039091169063ca1642e190602401602060405180830381865afa158015610384573d5f5f3e3d5ffd5b505050506040513d601f19601f820116820180604052508101906103a89190610609565b9050803410156103ed5760405162461bcd60e51b815260206004820152601060248201526f496e73756666696369656e742066656560801b6044820152606401610248565b600154604051630bed189f60e01b815263ffffffff841660048201525f916001600160a01b031690630bed189f90849060240160206040518083038185885af115801561043c573d5f5f3e3d5ffd5b50505050506040513d601f19601f820116820180604052508101906104619190610620565b6040805167ffffffffffffffff831681523360208201529192507ff09a63f9e06f8e96ec8e1be5bdfdb17d52cf919bcfe025e59cf8e5c0bd65d35a910160405180910390a1813411156104e357336108fc6104bc843461063b565b6040518115909202915f818181858888f193505050501580156104e1573d5f5f3e3d5ffd5b505b505050565b5f546001600160a01b031633146102cd5760405163118cdaa760e01b8152336004820152602401610248565b5f80546001600160a01b038381166001600160a01b0319831681178455604051919092169283917f8be0079c531659141344cd1fd0a4f28419497f9722a3daafe3b4186f6b6457e09190a35050565b67ffffffffffffffff81168114610333575f5ffd5b80356001600160a01b038116811461058e575f5ffd5b919050565b5f5f5f606084860312156105a5575f5ffd5b83356105b081610563565b92506105be60208501610578565b9150604084013590509250925092565b5f602082840312156105de575f5ffd5b81356105e981610563565b9392505050565b5f60208284031215610600575f5ffd5b6105e982610578565b5f60208284031215610619575f5ffd5b5051919050565b5f60208284031215610630575f5ffd5b81516105e981610563565b8181038181111561065a57634e487b7160e01b5f52601160045260245ffd5b9291505056fea2646970667358221220a1af815db760c70e09f2686a88a05fcd119bdb42987143cd5171ad6e2556c0dd64736f6c634300081c0033",
  "linkReferences": {},
  "deployedLinkReferences": {},
  "immutableReferences": {},
  "inputSourceName": "project/contracts/examples/PythExampleConsumer.sol",
  "buildInfoId": "solc-0_8_28-286e5023cb3bdf4dce971ab403dae6889ed44348"
}